{"abi":[{"type":"constructor","inputs":[{"name":"maxSupply_","type":"uint256","internalType":"uint256"},{"name":"mintPrice_","type":"uint256","internalType":"uint256"},{"name":"maxMintPerTx_","type":"uint256","internalType":"uint256"},{"name":"maxMintPerWallet_","type":"uint256","internalType":"uint256"},{"name":"hiddenMetadataURI_","type":"string","internalType":"string"}],"stateMutability":"nonpayable"},{"type":"function","name":"approve","inputs":[{"name":"to","type":"address","internalType":"address"},{"name":"tokenId","type":"uint256","internalType":"uint256"}],"outputs":[],"stateMutability":"nonpayable"},{"type":"function","name":"balanceOf","inputs":[{"name":"owner","type":"address","internalType":"address"}],"outputs":[{"name":"","type":"uint256","internalType":"uint256"}],"stateMutability":"view"},{"type":"function","name":"getApproved","inputs":[{"name":"tokenId","type":"uint256","internalType":"uint256"}],"outputs":[{"name":"","type":"address","internalType":"address"}],"stateMutability":"view"},{"type":"function","name":"hiddenMetadataURI","inputs":[],"outputs":[{"name":"","type":"string","internalType":"string"}],"stateMutability":"view"},{"type":"function","name":"isApprovedForAll","inputs":[{"name":"owner","type":"address","internalType":"address"},{"name":"operator","type":"address","internalType":"address"}],"outputs":[{"name":"","type":"bool","internalType":"bool"}],"stateMutability":"view"},{"type":"function","name":"maxMintPerTx","inputs":[],"outputs":[{"name":"","type":"uint256","internalType":"uint256"}],"stateMutability":"view"},{"type":"function","name":"maxMintPerWallet","inputs":[],"outputs":[{"name":"","type":"uint256","internalType":"uint256"}],"stateMutability":"view"},{"type":"function","name":"maxSupply","inputs":[],"outputs":[{"name":"","type":"uint256","internalType":"uint256"}],"stateMutability":"view"},{"type":"function","name":"mint","inputs":[{"name":"quantity","type":"uint256","internalType":"uint256"}],"outputs":[],"stateMutability":"payable"},{"type":"function","name":"mintPrice","inputs":[],"outputs":[{"name":"","type":"uint256","internalType":"uint256"}],"stateMutability":"view"},{"type":"function","name":"mintedPerWallet","inputs":[{"name":"","type":"address","internalType":"address"}],"outputs":[{"name":"","type":"uint256","internalType":"uint256"}],"stateMutability":"view"},{"type":"function","name":"name","inputs":[],"outputs":[{"name":"","type":"string","internalType":"string"}],"stateMutability":"view"},{"type":"function","name":"owner","inputs":[],"outputs":[{"name":"","type":"address","internalType":"address"}],"stateMutability":"view"},{"type":"function","name":"ownerMint","inputs":[{"name":"to","type":"address","internalType":"address"},{"name":"quantity","type":"uint256","internalType":"uint256"}],"outputs":[],"stateMutability":"nonpayable"},{"type":"function","name":"ownerOf","inputs":[{"name":"tokenId","type":"uint256","internalType":"uint256"}],"outputs":[{"name":"","type":"address","internalType":"address"}],"stateMutability":"view"},{"type":"function","name":"renounceOwnership","inputs":[],"outputs":[],"stateMutability":"nonpayable"},{"type":"function","name":"reveal","inputs":[],"outputs":[],"stateMutability":"nonpayable"},{"type":"function","name":"revealed","inputs":[],"outputs":[{"name":"","type":"bool","internalType":"bool"}],"stateMutability":"view"},{"type":"function","name":"safeTransferFrom","inputs":[{"name":"from","type":"address","internalType":"address"},{"name":"to","type":"address","internalType":"address"},{"name":"tokenId","type":"uint256","internalType":"uint256"}],"outputs":[],"stateMutability":"nonpayable"},{"type":"function","name":"safeTransferFrom","inputs":[{"name":"from","type":"address","internalType":"address"},{"name":"to","type":"address","internalType":"address"},{"name":"tokenId","type":"uint256","internalType":"uint256"},{"name":"data","type":"bytes","internalType":"bytes"}],"outputs":[],"stateMutability":"nonpayable"},{"type":"function","name":"salePhase","inputs":[],"outputs":[{"name":"","type":"uint8","internalType":"enum HOODIE.SalePhase"}],"stateMutability":"view"},{"type":"function","name":"setApprovalForAll","inputs":[{"name":"operator","type":"address","internalType":"address"},{"name":"approved","type":"bool","internalType":"bool"}],"outputs":[],"stateMutability":"nonpayable"},{"type":"function","name":"setBaseURI","inputs":[{"name":"newBaseURI","type":"string","internalType":"string"}],"outputs":[],"stateMutability":"nonpayable"},{"type":"function","name":"setHiddenURI","inputs":[{"name":"newHiddenURI","type":"string","internalType":"string"}],"outputs":[],"stateMutability":"nonpayable"},{"type":"function","name":"setMaxMintPerTx","inputs":[{"name":"newLimit","type":"uint256","internalType":"uint256"}],"outputs":[],"stateMutability":"nonpayable"},{"type":"function","name":"setMaxMintPerWallet","inputs":[{"name":"newLimit","type":"uint256","internalType":"uint256"}],"outputs":[],"stateMutability":"nonpayable"},{"type":"function","name":"setMintPrice","inputs":[{"name":"newPrice","type":"uint256","internalType":"uint256"}],"outputs":[],"stateMutability":"nonpayable"},{"type":"function","name":"setSalePhase","inputs":[{"name":"phase","type":"uint8","internalType":"enum HOODIE.SalePhase"}],"outputs":[],"stateMutability":"nonpayable"},{"type":"function","name":"supportsInterface","inputs":[{"name":"interfaceId","type":"bytes4","internalType":"bytes4"}],"outputs":[{"name":"","type":"bool","internalType":"bool"}],"stateMutability":"view"},{"type":"function","name":"symbol","inputs":[],"outputs":[{"name":"","type":"string","internalType":"string"}],"stateMutability":"view"},{"type":"function","name":"tokenURI","inputs":[{"name":"tokenId","type":"uint256","internalType":"uint256"}],"outputs":[{"name":"","type":"string","internalType":"string"}],"stateMutability":"view"},{"type":"function","name":"totalSupply","inputs":[],"outputs":[{"name":"","type":"uint256","internalType":"uint256"}],"stateMutability":"view"},{"type":"function","name":"transferFrom","inputs":[{"name":"from","type":"address","internalType":"address"},{"name":"to","type":"address","internalType":"address"},{"name":"tokenId","type":"uint256","internalType":"uint256"}],"outputs":[],"stateMutability":"nonpayable"},{"type":"function","name":"transferOwnership","inputs":[{"name":"newOwner","type":"address","internalType":"address"}],"outputs":[],"stateMutability":"nonpayable"},{"type":"function","name":"withdraw","inputs":[],"outputs":[],"stateMutability":"nonpayable"},{"type":"event","name":"Approval","inputs":[{"name":"owner","type":"address","indexed":true,"internalType":"address"},{"name":"approved","type":"address","indexed":true,"internalType":"address"},{"name":"tokenId","type":"uint256","indexed":true,"internalType":"uint256"}],"anonymous":false},{"type":"event","name":"ApprovalForAll","inputs":[{"name":"owner","type":"address","indexed":true,"internalType":"address"},{"name":"operator","type":"address","indexed":true,"internalType":"address"},{"name":"approved","type":"bool","indexed":false,"internalType":"bool"}],"anonymous":false},{"type":"event","name":"BaseURIUpdated","inputs":[{"name":"newBaseURI","type":"string","indexed":false,"internalType":"string"}],"anonymous":false},{"type":"event","name":"CollectionRevealed","inputs":[{"name":"baseURI","type":"string","indexed":false,"internalType":"string"}],"anonymous":false},{"type":"event","name":"FundsWithdrawn","inputs":[{"name":"owner","type":"address","indexed":true,"internalType":"address"},{"name":"amount","type":"uint256","indexed":false,"internalType":"uint256"}],"anonymous":false},{"type":"event","name":"HiddenURIUpdated","inputs":[{"name":"newHiddenURI","type":"string","indexed":false,"internalType":"string"}],"anonymous":false},{"type":"event","name":"MaxMintPerTxUpdated","inputs":[{"name":"newLimit","type":"uint256","indexed":false,"internalType":"uint256"}],"anonymous":false},{"type":"event","name":"MaxMintPerWalletUpdated","inputs":[{"name":"newLimit","type":"uint256","indexed":false,"internalType":"uint256"}],"anonymous":false},{"type":"event","name":"MintPriceUpdated","inputs":[{"name":"newPrice","type":"uint256","indexed":false,"internalType":"uint256"}],"anonymous":false},{"type":"event","name":"Minted","inputs":[{"name":"minter","type":"address","indexed":true,"internalType":"address"},{"name":"quantity","type":"uint256","indexed":false,"internalType":"uint256"}],"anonymous":false},{"type":"event","name":"OwnerMint","inputs":[{"name":"to","type":"address","indexed":true,"internalType":"address"},{"name":"quantity","type":"uint256","indexed":false,"internalType":"uint256"}],"anonymous":false},{"type":"event","name":"OwnershipTransferred","inputs":[{"name":"previousOwner","type":"address","indexed":true,"internalType":"address"},{"name":"newOwner","type":"address","indexed":true,"internalType":"address"}],"anonymous":false},{"type":"event","name":"SalePhaseUpdated","inputs":[{"name":"phase","type":"uint8","indexed":false,"internalType":"enum HOODIE.SalePhase"}],"anonymous":false},{"type":"event","name":"Transfer","inputs":[{"name":"from","type":"address","indexed":true,"internalType":"address"},{"name":"to","type":"address","indexed":true,"internalType":"address"},{"name":"tokenId","type":"uint256","indexed":true,"internalType":"uint256"}],"anonymous":false},{"type":"error","name":"AlreadyRevealed","inputs":[]},{"type":"error","name":"BaseURINotSet","inputs":[]},{"type":"error","name":"ERC721IncorrectOwner","inputs":[{"name":"sender","type":"address","internalType":"address"},{"name":"tokenId","type":"uint256","internalType":"uint256"},{"name":"owner","type":"address","internalType":"address"}]},{"type":"error","name":"ERC721InsufficientApproval","inputs":[{"name":"operator","type":"address","internalType":"address"},{"name":"tokenId","type":"uint256","internalType":"uint256"}]},{"type":"error","name":"ERC721InvalidApprover","inputs":[{"name":"approver","type":"address","internalType":"address"}]},{"type":"error","name":"ERC721InvalidOperator","inputs":[{"name":"operator","type":"address","internalType":"address"}]},{"type":"error","name":"ERC721InvalidOwner","inputs":[{"name":"owner","type":"address","internalType":"address"}]},{"type":"error","name":"ERC721InvalidReceiver","inputs":[{"name":"receiver","type":"address","internalType":"address"}]},{"type":"error","name":"ERC721InvalidSender","inputs":[{"name":"sender","type":"address","internalType":"address"}]},{"type":"error","name":"ERC721NonexistentToken","inputs":[{"name":"tokenId","type":"uint256","internalType":"uint256"}]},{"type":"error","name":"ExceedsWalletLimit","inputs":[]},{"type":"error","name":"IncorrectPayment","inputs":[]},{"type":"error","name":"InvalidHiddenURI","inputs":[]},{"type":"error","name":"InvalidLimit","inputs":[]},{"type":"error","name":"InvalidMaxSupply","inputs":[]},{"type":"error","name":"InvalidMintPrice","inputs":[]},{"type":"error","name":"InvalidQuantity","inputs":[]},{"type":"error","name":"MaxSupplyReached","inputs":[]},{"type":"error","name":"NoFunds","inputs":[]},{"type":"error","name":"OwnableInvalidOwner","inputs":[{"name":"owner","type":"address","internalType":"address"}]},{"type":"error","name":"OwnableUnauthorizedAccount","inputs":[{"name":"account","type":"address","internalType":"address"}]},{"type":"error","name":"ReentrancyGuardReentrantCall","inputs":[]},{"type":"error","name":"SaleClosed","inputs":[]},{"type":"error","name":"WithdrawFailed","inputs":[]}],"bytecode":{"object":"0x60a06040526001600b5534801562000015575f80fd5b50604051620023bc380380620023bc83398101604081905262000038916200020d565b604080518082018252600680825265484f4f44494560d01b602080840182905284518086019095529184529083015233915f6200007683826200038c565b5060016200008582826200038c565b5050506001600160a01b038116620000b657604051631e4fbdf760e01b81525f600482015260240160405180910390fd5b620000c181620001a8565b5060017f9b779b17422d0df92223018b32b4d1fa46e071723d6817e2486d003becc55f00555f859003620001085760405163066f305360e21b815260040160405180910390fd5b825f03620001295760405163e55fb50960e01b815260040160405180910390fd5b815f036200014a5760405163e55fb50960e01b815260040160405180910390fd5b80515f036200016c5760405163042cfbb760e31b815260040160405180910390fd5b6080859052600784905560088390556009829055600e6200018e82826200038c565b50506006805460ff60a01b19169055506200045892505050565b600680546001600160a01b038381166001600160a01b0319831681179093556040519116919082907f8be0079c531659141344cd1fd0a4f28419497f9722a3daafe3b4186f6b6457e0905f90a35050565b634e487b7160e01b5f52604160045260245ffd5b5f805f805f60a0868803121562000222575f80fd5b8551602080880151604089015160608a015160808b015194995091975095509350906001600160401b038082111562000259575f80fd5b818901915089601f8301126200026d575f80fd5b815181811115620002825762000282620001f9565b604051601f8201601f19908116603f01168101908382118183101715620002ad57620002ad620001f9565b816040528281528c86848701011115620002c5575f80fd5b5f93505b82841015620002e85784840186015181850187015292850192620002c9565b5f8684830101528096505050505050509295509295909350565b600181811c908216806200031757607f821691505b6020821081036200033657634e487b7160e01b5f52602260045260245ffd5b50919050565b601f8211156200038757805f5260205f20601f840160051c81016020851015620003635750805b601f840160051c820191505b8181101562000384575f81556001016200036f565b50505b505050565b81516001600160401b03811115620003a857620003a8620001f9565b620003c081620003b9845462000302565b846200033c565b602080601f831160018114620003f6575f8415620003de5750858301515b5f19600386901b1c1916600185901b17855562000450565b5f85815260208120601f198616915b82811015620004265788860151825594840194600190910190840162000405565b50858210156200044457878501515f19600388901b60f8161c191681555b505060018460011b0185555b505050505050565b608051611f3d6200047f5f395f81816105710152818161091a0152610c330152611f3d5ff3fe6080604052600436106101fc575f3560e01c80637ad5943111610113578063ba9e12f71161009d578063de7fcb1d1161006d578063de7fcb1d14610593578063e4f2487a146105a8578063e985e9c5146105d5578063f2fde38b146105f4578063f4a0a52814610613575f80fd5b8063ba9e12f71461050e578063bbaac02f14610522578063c87b56dd14610541578063d5abeb0114610560575f80fd5b8063a22cb465116100e3578063a22cb46514610488578063a475b5dd146104a7578063afdf6134146104bb578063b228d925146104da578063b88d4fde146104ef575f80fd5b80637ad59431146104255780638da5cb5b1461044457806395d89b4114610461578063a0712d6814610475575f80fd5b806342842e0e11610194578063616cdb1e11610164578063616cdb1e1461039f5780636352211e146103be5780636817c76c146103dd57806370a08231146103f2578063715018a614610411575f80fd5b806342842e0e14610329578063484b973c14610348578063518302271461036757806355f804b314610380575f80fd5b806318160ddd116101cf57806318160ddd146102ad57806323b872dd146102cb5780633a602b4d146102ea5780633ccfd60b14610315575f80fd5b806301ffc9a71461020057806306fdde0314610234578063081812fc14610255578063095ea7b31461028c575b5f80fd5b34801561020b575f80fd5b5061021f61021a3660046118ca565b610632565b60405190151581526020015b60405180910390f35b34801561023f575f80fd5b50610248610683565b60405161022b9190611939565b348015610260575f80fd5b5061027461026f36600461194b565b610712565b6040516001600160a01b03909116815260200161022b565b348015610297575f80fd5b506102ab6102a636600461197d565b610739565b005b3480156102b8575f80fd5b50600a545b60405190815260200161022b565b3480156102d6575f80fd5b506102ab6102e53660046119a5565b610748565b3480156102f5575f80fd5b506102bd6103043660046119de565b600c6020525f908152604090205481565b348015610320575f80fd5b506102ab6107d6565b348015610334575f80fd5b506102ab6103433660046119a5565b6108f1565b348015610353575f80fd5b506102ab61036236600461197d565b610910565b348015610372575f80fd5b50600f5461021f9060ff1681565b34801561038b575f80fd5b506102ab61039a3660046119f7565b610a14565b3480156103aa575f80fd5b506102ab6103b936600461194b565b610a8b565b3480156103c9575f80fd5b506102746103d836600461194b565b610aef565b3480156103e8575f80fd5b506102bd60075481565b3480156103fd575f80fd5b506102bd61040c3660046119de565b610af9565b34801561041c575f80fd5b506102ab610b3e565b348015610430575f80fd5b506102ab61043f366004611a63565b610b4f565b34801561044f575f80fd5b506006546001600160a01b0316610274565b34801561046c575f80fd5b50610248610bb0565b6102ab61048336600461194b565b610bbf565b348015610493575f80fd5b506102ab6104a2366004611a81565b610da1565b3480156104b2575f80fd5b506102ab610dac565b3480156104c6575f80fd5b506102ab6104d536600461194b565b610e2a565b3480156104e5575f80fd5b506102bd60095481565b3480156104fa575f80fd5b506102ab610509366004611ace565b610e87565b348015610519575f80fd5b50610248610e9f565b34801561052d575f80fd5b506102ab61053c3660046119f7565b610f2b565b34801561054c575f80fd5b5061024861055b36600461194b565b610f72565b34801561056b575f80fd5b506102bd7f000000000000000000000000000000000000000000000000000000000000000081565b34801561059e575f80fd5b506102bd60085481565b3480156105b3575f80fd5b506006546105c890600160a01b900460ff1681565b60405161022b9190611bb7565b3480156105e0575f80fd5b5061021f6105ef366004611bdd565b611050565b3480156105ff575f80fd5b506102ab61060e3660046119de565b61107d565b34801561061e575f80fd5b506102ab61062d36600461194b565b6110b7565b5f6001600160e01b031982166380ac58cd60e01b148061066257506001600160e01b03198216635b5e139f60e01b145b8061067d57506301ffc9a760e01b6001600160e01b03198316145b92915050565b60605f805461069190611c0e565b80601f01602080910402602001604051908101604052809291908181526020018280546106bd90611c0e565b80156107085780601f106106df57610100808354040283529160200191610708565b820191905f5260205f20905b8154815290600101906020018083116106eb57829003601f168201915b5050505050905090565b5f61071c826110f4565b505f828152600460205260409020546001600160a01b031661067d565b61074482823361112c565b5050565b6001600160a01b03821661077657604051633250574960e11b81525f60048201526024015b60405180910390fd5b5f610782838333611139565b9050836001600160a01b0316816001600160a01b0316146107d0576040516364283d7b60e01b81526001600160a01b038086166004830152602482018490528216604482015260640161076d565b50505050565b6107de61122b565b6107e6611258565b475f8190036108085760405163043f9e1160e41b815260040160405180910390fd5b5f61081b6006546001600160a01b031690565b6001600160a01b0316826040515f6040518083038185875af1925050503d805f8114610862576040519150601f19603f3d011682016040523d82523d5f602084013e610867565b606091505b505090508061088957604051631d42c86760e21b815260040160405180910390fd5b6006546001600160a01b03166001600160a01b03167feaff4b37086828766ad3268786972c0cd24259d4c87a80f9d3963a3c3d999b0d836040516108cf91815260200190565b60405180910390a250506108ef60015f80516020611ee883398151915255565b565b61090b83838360405180602001604052805f815250610e87565b505050565b61091861122b565b7f000000000000000000000000000000000000000000000000000000000000000081600a546109479190611c5a565b11156109665760405163d05cb60960e01b815260040160405180910390fd5b805f036109865760405163524f409b60e01b815260040160405180910390fd5b5f5b818110156109cc5761099c83600b54611273565b600b8054905f6109ab83611c6d565b9091555050600a8054905f6109bf83611c6d565b9091555050600101610988565b50816001600160a01b03167f76dcb19d73dc6c5a49de41d75b9ab52e3d44ca8cd90c330c238bacb4f8b5b4f582604051610a0891815260200190565b60405180910390a25050565b610a1c61122b565b600f5460ff1615610a405760405163a89ac15160e01b815260040160405180910390fd5b600d610a4d828483611cc9565b507f6741b2fc379fad678116fe3d4d4b9a1a184ab53ba36b86ad0fa66340b1ab41ad8282604051610a7f929190611d83565b60405180910390a15050565b610a9361122b565b805f03610ab35760405163e55fb50960e01b815260040160405180910390fd5b60088190556040518181527f3a358804af83c4be969429b37cfd2b9dd2768bc6926602886697272f5754d4eb906020015b60405180910390a150565b5f61067d826110f4565b5f6001600160a01b038216610b23576040516322718ad960e21b81525f600482015260240161076d565b506001600160a01b03165f9081526003602052604090205490565b610b4661122b565b6108ef5f61128c565b610b5761122b565b6006805482919060ff60a01b1916600160a01b836001811115610b7c57610b7c611ba3565b02179055507f845b705ea3c0d9cb5bb205af3e66f2095da98593e843910ba66d0d6f6f80008881604051610ae49190611bb7565b60606001805461069190611c0e565b610bc7611258565b6001600654600160a01b900460ff166001811115610be757610be7611ba3565b14610c0557604051634c013bd760e01b815260040160405180910390fd5b801580610c13575060085481115b15610c315760405163524f409b60e01b815260040160405180910390fd5b7f000000000000000000000000000000000000000000000000000000000000000081600a54610c609190611c5a565b1115610c7f5760405163d05cb60960e01b815260040160405180910390fd5b600954335f908152600c6020526040902054610c9c908390611c5a565b1115610cbb57604051635107dbe760e01b815260040160405180910390fd5b80600754610cc99190611db1565b3414610ce85760405163569e8c1160e01b815260040160405180910390fd5b335f908152600c602052604081208054839290610d06908490611c5a565b909155505f90505b81811015610d5257610d2233600b54611273565b600b8054905f610d3183611c6d565b9091555050600a8054905f610d4583611c6d565b9091555050600101610d0e565b5060405181815233907f30385c845b448a36257a6a1716e6ad2e1bc2cbe333cde1e69fe849ad6511adfe9060200160405180910390a2610d9e60015f80516020611ee883398151915255565b50565b6107443383836112dd565b610db461122b565b600d8054610dc190611c0e565b90505f03610de257604051635c5a3b2d60e11b815260040160405180910390fd5b600f805460ff191660011790556040517f09aeffebf08fc44a38a139bbfafcc95e27b04cc8690c84246a34c2bd67f3d9b990610e2090600d90611dc8565b60405180910390a1565b610e3261122b565b805f03610e525760405163e55fb50960e01b815260040160405180910390fd5b60098190556040518181527fa70551d77839af8d46672cc5a1e4fc3a1b08e9e3cc87239c10d705a80baf938c90602001610ae4565b610e92848484610748565b6107d033858585856113a4565b600e8054610eac90611c0e565b80601f0160208091040260200160405190810160405280929190818152602001828054610ed890611c0e565b8015610f235780601f10610efa57610100808354040283529160200191610f23565b820191905f5260205f20905b815481529060010190602001808311610f0657829003601f168201915b505050505081565b610f3361122b565b600e610f40828483611cc9565b507f45369159047c5499b1c9b077b5525862bc88be82363efdd09aaed1cb93f1de118282604051610a7f929190611d83565b6060610f7d826110f4565b50600f5460ff1661101857600e8054610f9590611c0e565b80601f0160208091040260200160405190810160405280929190818152602001828054610fc190611c0e565b801561100c5780601f10610fe35761010080835404028352916020019161100c565b820191905f5260205f20905b815481529060010190602001808311610fef57829003601f168201915b50505050509050919050565b6110206114cc565b611029836114db565b60405160200161103a929190611e52565b6040516020818303038152906040529050919050565b6001600160a01b039182165f90815260056020908152604080832093909416825291909152205460ff1690565b61108561122b565b6001600160a01b0381166110ae57604051631e4fbdf760e01b81525f600482015260240161076d565b610d9e8161128c565b6110bf61122b565b60078190556040518181527f525b762709cc2a983aec5ccdfd807a061f993c91090b5bcd7da92ca254976aaa90602001610ae4565b5f818152600260205260408120546001600160a01b03168061067d57604051637e27328960e01b81526004810184905260240161076d565b61090b838383600161156b565b5f828152600260205260408120546001600160a01b03908116908316156111655761116581848661166f565b6001600160a01b0381161561119f576111805f855f8061156b565b6001600160a01b0381165f90815260036020526040902080545f190190555b6001600160a01b038516156111cd576001600160a01b0385165f908152600360205260409020805460010190555b5f8481526002602052604080822080546001600160a01b0319166001600160a01b0389811691821790925591518793918516917fddf252ad1be2c89b69c2b068fc378daa952ba7f163c4a11628f55a4df523b3ef91a4949350505050565b6006546001600160a01b031633146108ef5760405163118cdaa760e01b815233600482015260240161076d565b6112606116d3565b60025f80516020611ee883398151915255565b610744828260405180602001604052805f815250611702565b600680546001600160a01b038381166001600160a01b0319831681179093556040519116919082907f8be0079c531659141344cd1fd0a4f28419497f9722a3daafe3b4186f6b6457e0905f90a35050565b6001600160a01b0383166113065760405163a9fbf51f60e01b81525f600482015260240161076d565b6001600160a01b03821661133857604051630b61174360e31b81526001600160a01b038316600482015260240161076d565b6001600160a01b038381165f81815260056020908152604080832094871680845294825291829020805460ff191686151590811790915591519182527f17307eab39ab6107e8899845ad3d59bd9653f200f220920489ca2b5937696c31910160405180910390a3505050565b6001600160a01b0383163b156114c557604051630a85bd0160e11b81526001600160a01b0384169063150b7a02906113e6908890889087908790600401611e90565b6020604051808303815f875af1925050508015611420575060408051601f3d908101601f1916820190925261141d91810190611ecc565b60015b611487573d80801561144d576040519150601f19603f3d011682016040523d82523d5f602084013e611452565b606091505b5080515f0361147f57604051633250574960e11b81526001600160a01b038516600482015260240161076d565b805160208201fd5b6001600160e01b03198116630a85bd0160e11b146114c357604051633250574960e11b81526001600160a01b038516600482015260240161076d565b505b5050505050565b6060600d805461069190611c0e565b60605f6114e783611719565b60010190505f8167ffffffffffffffff81111561150657611506611aba565b6040519080825280601f01601f191660200182016040528015611530576020820181803683370190505b5090508181016020015b5f19016f181899199a1a9b1b9c1cb0b131b232b360811b600a86061a8153600a850494508461153a57509392505050565b808061157f57506001600160a01b03821615155b15611640575f61158e846110f4565b90506001600160a01b038316158015906115ba5750826001600160a01b0316816001600160a01b031614155b80156115cd57506115cb8184611050565b155b156115f65760405163a9fbf51f60e01b81526001600160a01b038416600482015260240161076d565b811561163e5783856001600160a01b0316826001600160a01b03167f8c5be1e5ebec7d5bd14f71427d1e84f3dd0314c0f7b2291e5b200ac8c7c3b92560405160405180910390a45b505b50505f90815260046020526040902080546001600160a01b0319166001600160a01b0392909216919091179055565b61167a8383836117f0565b61090b576001600160a01b0383166116a857604051637e27328960e01b81526004810182905260240161076d565b60405163177e802f60e01b81526001600160a01b03831660048201526024810182905260440161076d565b5f80516020611ee8833981519152546002036108ef57604051633ee5aeb560e01b815260040160405180910390fd5b61170c8383611854565b61090b335f8585856113a4565b5f8072184f03e93ff9f4daa797ed6e38ed64bf6a1f0160401b83106117575772184f03e93ff9f4daa797ed6e38ed64bf6a1f0160401b830492506040015b6d04ee2d6d415b85acef81000000008310611783576d04ee2d6d415b85acef8100000000830492506020015b662386f26fc1000083106117a157662386f26fc10000830492506010015b6305f5e10083106117b9576305f5e100830492506008015b61271083106117cd57612710830492506004015b606483106117df576064830492506002015b600a831061067d5760010192915050565b5f6001600160a01b0383161580159061184c5750826001600160a01b0316846001600160a01b0316148061182957506118298484611050565b8061184c57505f828152600460205260409020546001600160a01b038481169116145b949350505050565b6001600160a01b03821661187d57604051633250574960e11b81525f600482015260240161076d565b5f61188983835f611139565b90506001600160a01b0381161561090b576040516339e3563760e11b81525f600482015260240161076d565b6001600160e01b031981168114610d9e575f80fd5b5f602082840312156118da575f80fd5b81356118e5816118b5565b9392505050565b5f5b838110156119065781810151838201526020016118ee565b50505f910152565b5f81518084526119258160208601602086016118ec565b601f01601f19169290920160200192915050565b602081525f6118e5602083018461190e565b5f6020828403121561195b575f80fd5b5035919050565b80356001600160a01b0381168114611978575f80fd5b919050565b5f806040838503121561198e575f80fd5b61199783611962565b946020939093013593505050565b5f805f606084860312156119b7575f80fd5b6119c084611962565b92506119ce60208501611962565b9150604084013590509250925092565b5f602082840312156119ee575f80fd5b6118e582611962565b5f8060208385031215611a08575f80fd5b823567ffffffffffffffff80821115611a1f575f80fd5b818501915085601f830112611a32575f80fd5b813581811115611a40575f80fd5b866020828501011115611a51575f80fd5b60209290920196919550909350505050565b5f60208284031215611a73575f80fd5b8135600281106118e5575f80fd5b5f8060408385031215611a92575f80fd5b611a9b83611962565b915060208301358015158114611aaf575f80fd5b809150509250929050565b634e487b7160e01b5f52604160045260245ffd5b5f805f8060808587031215611ae1575f80fd5b611aea85611962565b9350611af860208601611962565b925060408501359150606085013567ffffffffffffffff80821115611b1b575f80fd5b818701915087601f830112611b2e575f80fd5b813581811115611b4057611b40611aba565b604051601f8201601f19908116603f01168101908382118183101715611b6857611b68611aba565b816040528281528a6020848701011115611b80575f80fd5b826020860160208301375f60208483010152809550505050505092959194509250565b634e487b7160e01b5f52602160045260245ffd5b6020810160028310611bd757634e487b7160e01b5f52602160045260245ffd5b91905290565b5f8060408385031215611bee575f80fd5b611bf783611962565b9150611c0560208401611962565b90509250929050565b600181811c90821680611c2257607f821691505b602082108103611c4057634e487b7160e01b5f52602260045260245ffd5b50919050565b634e487b7160e01b5f52601160045260245ffd5b8082018082111561067d5761067d611c46565b5f60018201611c7e57611c7e611c46565b5060010190565b601f82111561090b57805f5260205f20601f840160051c81016020851015611caa5750805b601f840160051c820191505b818110156114c5575f8155600101611cb6565b67ffffffffffffffff831115611ce157611ce1611aba565b611cf583611cef8354611c0e565b83611c85565b5f601f841160018114611d26575f8515611d0f5750838201355b5f19600387901b1c1916600186901b1783556114c5565b5f83815260208120601f198716915b82811015611d555786850135825560209485019460019092019101611d35565b5086821015611d71575f1960f88860031b161c19848701351681555b505060018560011b0183555050505050565b60208152816020820152818360408301375f818301604090810191909152601f909201601f19160101919050565b808202811582820484141761067d5761067d611c46565b5f60208083525f8454611dda81611c0e565b806020870152604060018084165f8114611dfb5760018114611e1757611e44565b60ff19851660408a0152604084151560051b8a01019550611e44565b895f5260205f205f5b85811015611e3b5781548b8201860152908301908801611e20565b8a016040019650505b509398975050505050505050565b5f8351611e638184602088016118ec565b835190830190611e778183602088016118ec565b64173539b7b760d91b9101908152600501949350505050565b6001600160a01b03858116825284166020820152604081018390526080606082018190525f90611ec29083018461190e565b9695505050505050565b5f60208284031215611edc575f80fd5b81516118e5816118b556fe9b779b17422d0df92223018b32b4d1fa46e071723d6817e2486d003becc55f00a26469706673582212202a9b3bb7e5430dc5587adbf7ab692a6a5636ceb8ad6ba72e0842e594177dfa3264736f6c63430008180033","linkReferences":{}},"methodIdentifiers":{"approve(address,uint256)":"095ea7b3","balanceOf(address)":"70a08231","getApproved(uint256)":"081812fc","hiddenMetadataURI()":"ba9e12f7","isApprovedForAll(address,address)":"e985e9c5","maxMintPerTx()":"de7fcb1d","maxMintPerWallet()":"b228d925","maxSupply()":"d5abeb01","mint(uint256)":"a0712d68","mintPrice()":"6817c76c","mintedPerWallet(address)":"3a602b4d","name()":"06fdde03","owner()":"8da5cb5b","ownerMint(address,uint256)":"484b973c","ownerOf(uint256)":"6352211e","renounceOwnership()":"715018a6","reveal()":"a475b5dd","revealed()":"51830227","safeTransferFrom(address,address,uint256)":"42842e0e","safeTransferFrom(address,address,uint256,bytes)":"b88d4fde","salePhase()":"e4f2487a","setApprovalForAll(address,bool)":"a22cb465","setBaseURI(string)":"55f804b3","setHiddenURI(string)":"bbaac02f","setMaxMintPerTx(uint256)":"616cdb1e","setMaxMintPerWallet(uint256)":"afdf6134","setMintPrice(uint256)":"f4a0a528","setSalePhase(uint8)":"7ad59431","supportsInterface(bytes4)":"01ffc9a7","symbol()":"95d89b41","tokenURI(uint256)":"c87b56dd","totalSupply()":"18160ddd","transferFrom(address,address,uint256)":"23b872dd","transferOwnership(address)":"f2fde38b","withdraw()":"3ccfd60b"},"id":37}